{
  "contractName": "TestOne",
  "abi": [
    {
      "inputs": [
        {
          "internalType": "string",
          "name": "baseURI",
          "type": "string"
        }
      ],
      "stateMutability": "nonpayable",
      "type": "constructor"
    },
    {
      "anonymous": false,
      "inputs": [
        {
          "indexed": true,
          "internalType": "address",
          "name": "owner",
          "type": "address"
        },
        {
          "indexed": true,
          "internalType": "address",
          "name": "approved",
          "type": "address"
        },
        {
          "indexed": true,
          "internalType": "uint256",
          "name": "tokenId",
          "type": "uint256"
        }
      ],
      "name": "Approval",
      "type": "event"
    },
    {
      "anonymous": false,
      "inputs": [
        {
          "indexed": true,
          "internalType": "address",
          "name": "owner",
          "type": "address"
        },
        {
          "indexed": true,
          "internalType": "address",
          "name": "operator",
          "type": "address"
        },
        {
          "indexed": false,
          "internalType": "bool",
          "name": "approved",
          "type": "bool"
        }
      ],
      "name": "ApprovalForAll",
      "type": "event"
    },
    {
      "anonymous": false,
      "inputs": [
        {
          "indexed": true,
          "internalType": "address",
          "name": "previousOwner",
          "type": "address"
        },
        {
          "indexed": true,
          "internalType": "address",
          "name": "newOwner",
          "type": "address"
        }
      ],
      "name": "OwnershipTransferred",
      "type": "event"
    },
    {
      "anonymous": false,
      "inputs": [
        {
          "indexed": true,
          "internalType": "address",
          "name": "from",
          "type": "address"
        },
        {
          "indexed": true,
          "internalType": "address",
          "name": "to",
          "type": "address"
        },
        {
          "indexed": true,
          "internalType": "uint256",
          "name": "tokenId",
          "type": "uint256"
        }
      ],
      "name": "Transfer",
      "type": "event"
    },
    {
      "inputs": [],
      "name": "MAX",
      "outputs": [
        {
          "internalType": "uint256",
          "name": "",
          "type": "uint256"
        }
      ],
      "stateMutability": "view",
      "type": "function",
      "constant": true
    },
    {
      "inputs": [
        {
          "internalType": "address",
          "name": "to",
          "type": "address"
        },
        {
          "internalType": "uint256",
          "name": "tokenId",
          "type": "uint256"
        }
      ],
      "name": "approve",
      "outputs": [],
      "stateMutability": "nonpayable",
      "type": "function"
    },
    {
      "inputs": [
        {
          "internalType": "address",
          "name": "owner",
          "type": "address"
        }
      ],
      "name": "balanceOf",
      "outputs": [
        {
          "internalType": "uint256",
          "name": "",
          "type": "uint256"
        }
      ],
      "stateMutability": "view",
      "type": "function",
      "constant": true
    },
    {
      "inputs": [
        {
          "internalType": "uint256",
          "name": "tokenId",
          "type": "uint256"
        }
      ],
      "name": "getApproved",
      "outputs": [
        {
          "internalType": "address",
          "name": "",
          "type": "address"
        }
      ],
      "stateMutability": "view",
      "type": "function",
      "constant": true
    },
    {
      "inputs": [
        {
          "internalType": "address",
          "name": "owner",
          "type": "address"
        },
        {
          "internalType": "address",
          "name": "operator",
          "type": "address"
        }
      ],
      "name": "isApprovedForAll",
      "outputs": [
        {
          "internalType": "bool",
          "name": "",
          "type": "bool"
        }
      ],
      "stateMutability": "view",
      "type": "function",
      "constant": true
    },
    {
      "inputs": [],
      "name": "name",
      "outputs": [
        {
          "internalType": "string",
          "name": "",
          "type": "string"
        }
      ],
      "stateMutability": "view",
      "type": "function",
      "constant": true
    },
    {
      "inputs": [],
      "name": "owner",
      "outputs": [
        {
          "internalType": "address",
          "name": "",
          "type": "address"
        }
      ],
      "stateMutability": "view",
      "type": "function",
      "constant": true
    },
    {
      "inputs": [
        {
          "internalType": "uint256",
          "name": "tokenId",
          "type": "uint256"
        }
      ],
      "name": "ownerOf",
      "outputs": [
        {
          "internalType": "address",
          "name": "",
          "type": "address"
        }
      ],
      "stateMutability": "view",
      "type": "function",
      "constant": true
    },
    {
      "inputs": [],
      "name": "paused",
      "outputs": [
        {
          "internalType": "bool",
          "name": "",
          "type": "bool"
        }
      ],
      "stateMutability": "view",
      "type": "function",
      "constant": true
    },
    {
      "inputs": [],
      "name": "renounceOwnership",
      "outputs": [],
      "stateMutability": "nonpayable",
      "type": "function"
    },
    {
      "inputs": [
        {
          "internalType": "address",
          "name": "from",
          "type": "address"
        },
        {
          "internalType": "address",
          "name": "to",
          "type": "address"
        },
        {
          "internalType": "uint256",
          "name": "tokenId",
          "type": "uint256"
        }
      ],
      "name": "safeTransferFrom",
      "outputs": [],
      "stateMutability": "nonpayable",
      "type": "function"
    },
    {
      "inputs": [
        {
          "internalType": "address",
          "name": "from",
          "type": "address"
        },
        {
          "internalType": "address",
          "name": "to",
          "type": "address"
        },
        {
          "internalType": "uint256",
          "name": "tokenId",
          "type": "uint256"
        },
        {
          "internalType": "bytes",
          "name": "_data",
          "type": "bytes"
        }
      ],
      "name": "safeTransferFrom",
      "outputs": [],
      "stateMutability": "nonpayable",
      "type": "function"
    },
    {
      "inputs": [
        {
          "internalType": "address",
          "name": "operator",
          "type": "address"
        },
        {
          "internalType": "bool",
          "name": "approved",
          "type": "bool"
        }
      ],
      "name": "setApprovalForAll",
      "outputs": [],
      "stateMutability": "nonpayable",
      "type": "function"
    },
    {
      "inputs": [
        {
          "internalType": "bytes4",
          "name": "interfaceId",
          "type": "bytes4"
        }
      ],
      "name": "supportsInterface",
      "outputs": [
        {
          "internalType": "bool",
          "name": "",
          "type": "bool"
        }
      ],
      "stateMutability": "view",
      "type": "function",
      "constant": true
    },
    {
      "inputs": [],
      "name": "symbol",
      "outputs": [
        {
          "internalType": "string",
          "name": "",
          "type": "string"
        }
      ],
      "stateMutability": "view",
      "type": "function",
      "constant": true
    },
    {
      "inputs": [
        {
          "internalType": "uint256",
          "name": "index",
          "type": "uint256"
        }
      ],
      "name": "tokenByIndex",
      "outputs": [
        {
          "internalType": "uint256",
          "name": "",
          "type": "uint256"
        }
      ],
      "stateMutability": "view",
      "type": "function",
      "constant": true
    },
    {
      "inputs": [
        {
          "internalType": "address",
          "name": "owner",
          "type": "address"
        },
        {
          "internalType": "uint256",
          "name": "index",
          "type": "uint256"
        }
      ],
      "name": "tokenOfOwnerByIndex",
      "outputs": [
        {
          "internalType": "uint256",
          "name": "",
          "type": "uint256"
        }
      ],
      "stateMutability": "view",
      "type": "function",
      "constant": true
    },
    {
      "inputs": [
        {
          "internalType": "uint256",
          "name": "tokenId",
          "type": "uint256"
        }
      ],
      "name": "tokenURI",
      "outputs": [
        {
          "internalType": "string",
          "name": "",
          "type": "string"
        }
      ],
      "stateMutability": "view",
      "type": "function",
      "constant": true
    },
    {
      "inputs": [],
      "name": "totalSupply",
      "outputs": [
        {
          "internalType": "uint256",
          "name": "",
          "type": "uint256"
        }
      ],
      "stateMutability": "view",
      "type": "function",
      "constant": true
    },
    {
      "inputs": [
        {
          "internalType": "address",
          "name": "from",
          "type": "address"
        },
        {
          "internalType": "address",
          "name": "to",
          "type": "address"
        },
        {
          "internalType": "uint256",
          "name": "tokenId",
          "type": "uint256"
        }
      ],
      "name": "transferFrom",
      "outputs": [],
      "stateMutability": "nonpayable",
      "type": "function"
    },
    {
      "inputs": [
        {
          "internalType": "address",
          "name": "newOwner",
          "type": "address"
        }
      ],
      "name": "transferOwnership",
      "outputs": [],
      "stateMutability": "nonpayable",
      "type": "function"
    },
    {
      "inputs": [
        {
          "internalType": "address",
          "name": "_to",
          "type": "address"
        },
        {
          "internalType": "uint256",
          "name": "_count",
          "type": "uint256"
        }
      ],
      "name": "mintTest",
      "outputs": [],
      "stateMutability": "payable",
      "type": "function",
      "payable": true
    },
    {
      "inputs": [
        {
          "internalType": "uint256",
          "name": "_count",
          "type": "uint256"
        }
      ],
      "name": "price",
      "outputs": [
        {
          "internalType": "uint256",
          "name": "",
          "type": "uint256"
        }
      ],
      "stateMutability": "view",
      "type": "function",
      "constant": true
    },
    {
      "inputs": [],
      "name": "selectGTest",
      "outputs": [],
      "stateMutability": "nonpayable",
      "type": "function"
    },
    {
      "inputs": [],
      "name": "getGTest",
      "outputs": [
        {
          "internalType": "uint256",
          "name": "",
          "type": "uint256"
        }
      ],
      "stateMutability": "view",
      "type": "function",
      "constant": true
    },
    {
      "inputs": [
        {
          "internalType": "string",
          "name": "baseURI",
          "type": "string"
        }
      ],
      "name": "setBaseURI",
      "outputs": [],
      "stateMutability": "nonpayable",
      "type": "function"
    },
    {
      "inputs": [
        {
          "internalType": "address",
          "name": "_owner",
          "type": "address"
        }
      ],
      "name": "walletOfOwner",
      "outputs": [
        {
          "internalType": "uint256[]",
          "name": "",
          "type": "uint256[]"
        }
      ],
      "stateMutability": "view",
      "type": "function",
      "constant": true
    },
    {
      "inputs": [
        {
          "internalType": "bool",
          "name": "val",
          "type": "bool"
        }
      ],
      "name": "pause",
      "outputs": [],
      "stateMutability": "nonpayable",
      "type": "function"
    },
    {
      "inputs": [],
      "name": "withdrawAll",
      "outputs": [],
      "stateMutability": "payable",
      "type": "function",
      "payable": true
    }
  ],
  "bytecode": "0x60806040526001600c60006101000a81548160ff0219169083151502179055506000600d553480156200003157600080fd5b50604051620048c1380380620048c18339818101604052810190620000579190620003bf565b6040518060400160405280600781526020017f546573744f6e65000000000000000000000000000000000000000000000000008152506040518060400160405280600781526020017f544553544f4e45000000000000000000000000000000000000000000000000008152508160009080519060200190620000db9291906200029d565b508060019080519060200190620000f49291906200029d565b505050600062000109620001c060201b60201c565b905080600a60006101000a81548173ffffffffffffffffffffffffffffffffffffffff021916908373ffffffffffffffffffffffffffffffffffffffff1602179055508073ffffffffffffffffffffffffffffffffffffffff16600073ffffffffffffffffffffffffffffffffffffffff167f8be0079c531659141344cd1fd0a4f28419497f9722a3daafe3b4186f6b6457e060405160405180910390a350620001b981620001c860201b60201c565b50620005aa565b600033905090565b620001d8620001c060201b60201c565b73ffffffffffffffffffffffffffffffffffffffff16620001fe6200027360201b60201c565b73ffffffffffffffffffffffffffffffffffffffff161462000257576040517f08c379a00000000000000000000000000000000000000000000000000000000081526004016200024e9062000446565b60405180910390fd5b80600b90805190602001906200026f9291906200029d565b5050565b6000600a60009054906101000a900473ffffffffffffffffffffffffffffffffffffffff16905090565b828054620002ab9062000516565b90600052602060002090601f016020900481019282620002cf57600085556200031b565b82601f10620002ea57805160ff19168380011785556200031b565b828001600101855582156200031b579182015b828111156200031a578251825591602001919060010190620002fd565b5b5090506200032a91906200032e565b5090565b5b80821115620003495760008160009055506001016200032f565b5090565b6000620003646200035e846200049c565b62000468565b9050828152602081018484840111156200037d57600080fd5b6200038a848285620004e0565b509392505050565b600082601f830112620003a457600080fd5b8151620003b68482602086016200034d565b91505092915050565b600060208284031215620003d257600080fd5b600082015167ffffffffffffffff811115620003ed57600080fd5b620003fb8482850162000392565b91505092915050565b600062000413602083620004cf565b91507f4f776e61626c653a2063616c6c6572206973206e6f7420746865206f776e65726000830152602082019050919050565b60006020820190508181036000830152620004618162000404565b9050919050565b6000604051905081810181811067ffffffffffffffff821117156200049257620004916200057b565b5b8060405250919050565b600067ffffffffffffffff821115620004ba57620004b96200057b565b5b601f19601f8301169050602081019050919050565b600082825260208201905092915050565b60005b8381101562000500578082015181840152602081019050620004e3565b8381111562000510576000848401525b50505050565b600060028204905060018216806200052f57607f821691505b602082108114156200054657620005456200054c565b5b50919050565b7f4e487b7100000000000000000000000000000000000000000000000000000000600052602260045260246000fd5b7f4e487b7100000000000000000000000000000000000000000000000000000000600052604160045260246000fd5b61430780620005ba6000396000f3fe6080604052600436106101c25760003560e01c80635c975abb116100f757806395d89b4111610095578063d49d518111610064578063d49d518114610645578063e985e9c514610670578063f0f142f2146106ad578063f2fde38b146106c9576101c2565b806395d89b411461058b578063a22cb465146105b6578063b88d4fde146105df578063c87b56dd14610608576101c2565b8063715018a6116100d1578063715018a6146105285780637c946db41461053f578063853828b6146105565780638da5cb5b14610560576101c2565b80635c975abb146104835780636352211e146104ae57806370a08231146104eb576101c2565b806323b872dd1161016457806342842e0e1161013e57806342842e0e146103b7578063438b6300146103e05780634f6ccce71461041d57806355f804b31461045a576101c2565b806323b872dd1461031457806326a49e371461033d5780632f745c591461037a576101c2565b8063081812fc116101a0578063081812fc14610258578063095ea7b3146102955780630b921e51146102be57806318160ddd146102e9576101c2565b806301ffc9a7146101c757806302329a291461020457806306fdde031461022d575b600080fd5b3480156101d357600080fd5b506101ee60048036038101906101e99190612f4d565b6106f2565b6040516101fb9190613aa2565b60405180910390f35b34801561021057600080fd5b5061022b60048036038101906102269190612f24565b61076c565b005b34801561023957600080fd5b50610242610805565b60405161024f9190613abd565b60405180910390f35b34801561026457600080fd5b5061027f600480360381019061027a9190612fe0565b610897565b60405161028c9190613a19565b60405180910390f35b3480156102a157600080fd5b506102bc60048036038101906102b79190612ee8565b61091c565b005b3480156102ca57600080fd5b506102d3610a34565b6040516102e09190613dff565b60405180910390f35b3480156102f557600080fd5b506102fe610abf565b60405161030b9190613dff565b60405180910390f35b34801561032057600080fd5b5061033b60048036038101906103369190612de2565b610acc565b005b34801561034957600080fd5b50610364600480360381019061035f9190612fe0565b610b2c565b6040516103719190613dff565b60405180910390f35b34801561038657600080fd5b506103a1600480360381019061039c9190612ee8565b610b54565b6040516103ae9190613dff565b60405180910390f35b3480156103c357600080fd5b506103de60048036038101906103d99190612de2565b610bf9565b005b3480156103ec57600080fd5b5061040760048036038101906104029190612d7d565b610c19565b6040516104149190613a80565b60405180910390f35b34801561042957600080fd5b50610444600480360381019061043f9190612fe0565b610d13565b6040516104519190613dff565b60405180910390f35b34801561046657600080fd5b50610481600480360381019061047c9190612f9f565b610daa565b005b34801561048f57600080fd5b50610498610e40565b6040516104a59190613aa2565b60405180910390f35b3480156104ba57600080fd5b506104d560048036038101906104d09190612fe0565b610e53565b6040516104e29190613a19565b60405180910390f35b3480156104f757600080fd5b50610512600480360381019061050d9190612d7d565b610f05565b60405161051f9190613dff565b60405180910390f35b34801561053457600080fd5b5061053d610fbd565b005b34801561054b57600080fd5b506105546110fa565b005b61055e611247565b005b34801561056c57600080fd5b5061057561130a565b6040516105829190613a19565b60405180910390f35b34801561059757600080fd5b506105a0611334565b6040516105ad9190613abd565b60405180910390f35b3480156105c257600080fd5b506105dd60048036038101906105d89190612eac565b6113c6565b005b3480156105eb57600080fd5b5061060660048036038101906106019190612e31565b611547565b005b34801561061457600080fd5b5061062f600480360381019061062a9190612fe0565b6115a9565b60405161063c9190613abd565b60405180910390f35b34801561065157600080fd5b5061065a611650565b6040516106679190613dff565b60405180910390f35b34801561067c57600080fd5b5061069760048036038101906106929190612da6565b611656565b6040516106a49190613aa2565b60405180910390f35b6106c760048036038101906106c29190612ee8565b6116ea565b005b3480156106d557600080fd5b506106f060048036038101906106eb9190612d7d565b611925565b005b60007f780e9d63000000000000000000000000000000000000000000000000000000007bffffffffffffffffffffffffffffffffffffffffffffffffffffffff1916827bffffffffffffffffffffffffffffffffffffffffffffffffffffffff19161480610765575061076482611ad1565b5b9050919050565b610774611bb3565b73ffffffffffffffffffffffffffffffffffffffff1661079261130a565b73ffffffffffffffffffffffffffffffffffffffff16146107e8576040517f08c379a00000000000000000000000000000000000000000000000000000000081526004016107df90613cff565b60405180910390fd5b80600c60006101000a81548160ff02191690831515021790555050565b606060008054610814906140f2565b80601f0160208091040260200160405190810160405280929190818152602001828054610840906140f2565b801561088d5780601f106108625761010080835404028352916020019161088d565b820191906000526020600020905b81548152906001019060200180831161087057829003601f168201915b5050505050905090565b60006108a282611bbb565b6108e1576040517f08c379a00000000000000000000000000000000000000000000000000000000081526004016108d890613cdf565b60405180910390fd5b6004600083815260200190815260200160002060009054906101000a900473ffffffffffffffffffffffffffffffffffffffff169050919050565b600061092782610e53565b90508073ffffffffffffffffffffffffffffffffffffffff168373ffffffffffffffffffffffffffffffffffffffff161415610998576040517f08c379a000000000000000000000000000000000000000000000000000000000815260040161098f90613d7f565b60405180910390fd5b8073ffffffffffffffffffffffffffffffffffffffff166109b7611bb3565b73ffffffffffffffffffffffffffffffffffffffff1614806109e657506109e5816109e0611bb3565b611656565b5b610a25576040517f08c379a0000000000000000000000000000000000000000000000000000000008152600401610a1c90613c3f565b60405180910390fd5b610a2f8383611c27565b505050565b6000610a3e61130a565b73ffffffffffffffffffffffffffffffffffffffff163373ffffffffffffffffffffffffffffffffffffffff1614610ab7576360f661b04211610ab6576040517f08c379a0000000000000000000000000000000000000000000000000000000008152600401610aad90613b5f565b60405180910390fd5b5b600d54905090565b6000600880549050905090565b610add610ad7611bb3565b82611ce0565b610b1c576040517f08c379a0000000000000000000000000000000000000000000000000000000008152600401610b1390613dbf565b60405180910390fd5b610b27838383611dbe565b505050565b600080610b37610abf565b905082662386f26fc10000610b4c9190613fae565b915050919050565b6000610b5f83610f05565b8210610ba0576040517f08c379a0000000000000000000000000000000000000000000000000000000008152600401610b9790613adf565b60405180910390fd5b600660008473ffffffffffffffffffffffffffffffffffffffff1673ffffffffffffffffffffffffffffffffffffffff168152602001908152602001600020600083815260200190815260200160002054905092915050565b610c1483838360405180602001604052806000815250611547565b505050565b60606000610c2683610f05565b905060008167ffffffffffffffff811115610c6a577f4e487b7100000000000000000000000000000000000000000000000000000000600052604160045260246000fd5b604051908082528060200260200182016040528015610c985781602001602082028036833780820191505090505b50905060005b82811015610d0857610cb08582610b54565b828281518110610ce9577f4e487b7100000000000000000000000000000000000000000000000000000000600052603260045260246000fd5b6020026020010181815250508080610d0090614124565b915050610c9e565b508092505050919050565b6000610d1d610abf565b8210610d5e576040517f08c379a0000000000000000000000000000000000000000000000000000000008152600401610d5590613ddf565b60405180910390fd5b60088281548110610d98577f4e487b7100000000000000000000000000000000000000000000000000000000600052603260045260246000fd5b90600052602060002001549050919050565b610db2611bb3565b73ffffffffffffffffffffffffffffffffffffffff16610dd061130a565b73ffffffffffffffffffffffffffffffffffffffff1614610e26576040517f08c379a0000000000000000000000000000000000000000000000000000000008152600401610e1d90613cff565b60405180910390fd5b80600b9080519060200190610e3c929190612ba1565b5050565b600c60009054906101000a900460ff1681565b6000806002600084815260200190815260200160002060009054906101000a900473ffffffffffffffffffffffffffffffffffffffff169050600073ffffffffffffffffffffffffffffffffffffffff168173ffffffffffffffffffffffffffffffffffffffff161415610efc576040517f08c379a0000000000000000000000000000000000000000000000000000000008152600401610ef390613c7f565b60405180910390fd5b80915050919050565b60008073ffffffffffffffffffffffffffffffffffffffff168273ffffffffffffffffffffffffffffffffffffffff161415610f76576040517f08c379a0000000000000000000000000000000000000000000000000000000008152600401610f6d90613c5f565b60405180910390fd5b600360008373ffffffffffffffffffffffffffffffffffffffff1673ffffffffffffffffffffffffffffffffffffffff168152602001908152602001600020549050919050565b610fc5611bb3565b73ffffffffffffffffffffffffffffffffffffffff16610fe361130a565b73ffffffffffffffffffffffffffffffffffffffff1614611039576040517f08c379a000000000000000000000000000000000000000000000000000000000815260040161103090613cff565b60405180910390fd5b600073ffffffffffffffffffffffffffffffffffffffff16600a60009054906101000a900473ffffffffffffffffffffffffffffffffffffffff1673ffffffffffffffffffffffffffffffffffffffff167f8be0079c531659141344cd1fd0a4f28419497f9722a3daafe3b4186f6b6457e060405160405180910390a36000600a60006101000a81548173ffffffffffffffffffffffffffffffffffffffff021916908373ffffffffffffffffffffffffffffffffffffffff160217905550565b611102611bb3565b73ffffffffffffffffffffffffffffffffffffffff1661112061130a565b73ffffffffffffffffffffffffffffffffffffffff1614611176576040517f08c379a000000000000000000000000000000000000000000000000000000000815260040161116d90613cff565b60405180910390fd5b6000600d54146111bb576040517f08c379a00000000000000000000000000000000000000000000000000000000081526004016111b290613bdf565b60405180910390fd5b600060016127106111cc9190614008565b9050600060016111da610abf565b6111e49190614008565b9050600042446040516020016111fb9291906139ed565b6040516020818303038152906040528051906020012060001c905082816112229190614177565b9050600581101580156112355750818111155b156112425780600d819055505b505050565b61124f611bb3565b73ffffffffffffffffffffffffffffffffffffffff1661126d61130a565b73ffffffffffffffffffffffffffffffffffffffff16146112c3576040517f08c379a00000000000000000000000000000000000000000000000000000000081526004016112ba90613cff565b60405180910390fd5b6112cb611bb3565b73ffffffffffffffffffffffffffffffffffffffff166108fc479081150290604051600060405180830381858888f1935050505061130857600080fd5b565b6000600a60009054906101000a900473ffffffffffffffffffffffffffffffffffffffff16905090565b606060018054611343906140f2565b80601f016020809104026020016040519081016040528092919081815260200182805461136f906140f2565b80156113bc5780601f10611391576101008083540402835291602001916113bc565b820191906000526020600020905b81548152906001019060200180831161139f57829003601f168201915b5050505050905090565b6113ce611bb3565b73ffffffffffffffffffffffffffffffffffffffff168273ffffffffffffffffffffffffffffffffffffffff16141561143c576040517f08c379a000000000000000000000000000000000000000000000000000000000815260040161143390613b9f565b60405180910390fd5b8060056000611449611bb3565b73ffffffffffffffffffffffffffffffffffffffff1673ffffffffffffffffffffffffffffffffffffffff16815260200190815260200160002060008473ffffffffffffffffffffffffffffffffffffffff1673ffffffffffffffffffffffffffffffffffffffff16815260200190815260200160002060006101000a81548160ff0219169083151502179055508173ffffffffffffffffffffffffffffffffffffffff166114f6611bb3565b73ffffffffffffffffffffffffffffffffffffffff167f17307eab39ab6107e8899845ad3d59bd9653f200f220920489ca2b5937696c318360405161153b9190613aa2565b60405180910390a35050565b611558611552611bb3565b83611ce0565b611597576040517f08c379a000000000000000000000000000000000000000000000000000000000815260040161158e90613dbf565b60405180910390fd5b6115a38484848461201a565b50505050565b60606115b482611bbb565b6115f3576040517f08c379a00000000000000000000000000000000000000000000000000000000081526004016115ea90613d3f565b60405180910390fd5b60006115fd612076565b9050600081511161161d5760405180602001604052806000815250611648565b8061162784612108565b6040516020016116389291906139c9565b6040516020818303038152906040525b915050919050565b61271081565b6000600560008473ffffffffffffffffffffffffffffffffffffffff1673ffffffffffffffffffffffffffffffffffffffff16815260200190815260200160002060008373ffffffffffffffffffffffffffffffffffffffff1673ffffffffffffffffffffffffffffffffffffffff16815260200190815260200160002060009054906101000a900460ff16905092915050565b6127106116f5610abf565b10611735576040517f08c379a000000000000000000000000000000000000000000000000000000000815260040161172c90613cbf565b60405180910390fd5b61173d61130a565b73ffffffffffffffffffffffffffffffffffffffff163373ffffffffffffffffffffffffffffffffffffffff16146117c057600c60009054906101000a900460ff16156117bf576040517f08c379a00000000000000000000000000000000000000000000000000000000081526004016117b690613bbf565b60405180910390fd5b5b612710816117cc610abf565b6117d69190613f27565b1115611817576040517f08c379a000000000000000000000000000000000000000000000000000000000815260040161180e90613bff565b60405180910390fd5b612710611822610abf565b10611862576040517f08c379a000000000000000000000000000000000000000000000000000000000815260040161185990613cbf565b60405180910390fd5b60148111156118a6576040517f08c379a000000000000000000000000000000000000000000000000000000000815260040161189d90613d9f565b60405180910390fd5b6118af81610b2c565b3410156118f1576040517f08c379a00000000000000000000000000000000000000000000000000000000081526004016118e890613d5f565b60405180910390fd5b60005b818110156119205761190d83611908610abf565b6122b5565b808061191890614124565b9150506118f4565b505050565b61192d611bb3565b73ffffffffffffffffffffffffffffffffffffffff1661194b61130a565b73ffffffffffffffffffffffffffffffffffffffff16146119a1576040517f08c379a000000000000000000000000000000000000000000000000000000000815260040161199890613cff565b60405180910390fd5b600073ffffffffffffffffffffffffffffffffffffffff168173ffffffffffffffffffffffffffffffffffffffff161415611a11576040517f08c379a0000000000000000000000000000000000000000000000000000000008152600401611a0890613b1f565b60405180910390fd5b8073ffffffffffffffffffffffffffffffffffffffff16600a60009054906101000a900473ffffffffffffffffffffffffffffffffffffffff1673ffffffffffffffffffffffffffffffffffffffff167f8be0079c531659141344cd1fd0a4f28419497f9722a3daafe3b4186f6b6457e060405160405180910390a380600a60006101000a81548173ffffffffffffffffffffffffffffffffffffffff021916908373ffffffffffffffffffffffffffffffffffffffff16021790555050565b60007f80ac58cd000000000000000000000000000000000000000000000000000000007bffffffffffffffffffffffffffffffffffffffffffffffffffffffff1916827bffffffffffffffffffffffffffffffffffffffffffffffffffffffff19161480611b9c57507f5b5e139f000000000000000000000000000000000000000000000000000000007bffffffffffffffffffffffffffffffffffffffffffffffffffffffff1916827bffffffffffffffffffffffffffffffffffffffffffffffffffffffff1916145b80611bac5750611bab826122d3565b5b9050919050565b600033905090565b60008073ffffffffffffffffffffffffffffffffffffffff166002600084815260200190815260200160002060009054906101000a900473ffffffffffffffffffffffffffffffffffffffff1673ffffffffffffffffffffffffffffffffffffffff1614159050919050565b816004600083815260200190815260200160002060006101000a81548173ffffffffffffffffffffffffffffffffffffffff021916908373ffffffffffffffffffffffffffffffffffffffff160217905550808273ffffffffffffffffffffffffffffffffffffffff16611c9a83610e53565b73ffffffffffffffffffffffffffffffffffffffff167f8c5be1e5ebec7d5bd14f71427d1e84f3dd0314c0f7b2291e5b200ac8c7c3b92560405160405180910390a45050565b6000611ceb82611bbb565b611d2a576040517f08c379a0000000000000000000000000000000000000000000000000000000008152600401611d2190613c1f565b60405180910390fd5b6000611d3583610e53565b90508073ffffffffffffffffffffffffffffffffffffffff168473ffffffffffffffffffffffffffffffffffffffff161480611da457508373ffffffffffffffffffffffffffffffffffffffff16611d8c84610897565b73ffffffffffffffffffffffffffffffffffffffff16145b80611db55750611db48185611656565b5b91505092915050565b8273ffffffffffffffffffffffffffffffffffffffff16611dde82610e53565b73ffffffffffffffffffffffffffffffffffffffff1614611e34576040517f08c379a0000000000000000000000000000000000000000000000000000000008152600401611e2b90613d1f565b60405180910390fd5b600073ffffffffffffffffffffffffffffffffffffffff168273ffffffffffffffffffffffffffffffffffffffff161415611ea4576040517f08c379a0000000000000000000000000000000000000000000000000000000008152600401611e9b90613b7f565b60405180910390fd5b611eaf83838361233d565b611eba600082611c27565b6001600360008573ffffffffffffffffffffffffffffffffffffffff1673ffffffffffffffffffffffffffffffffffffffff1681526020019081526020016000206000828254611f0a9190614008565b925050819055506001600360008473ffffffffffffffffffffffffffffffffffffffff1673ffffffffffffffffffffffffffffffffffffffff1681526020019081526020016000206000828254611f619190613f27565b92505081905550816002600083815260200190815260200160002060006101000a81548173ffffffffffffffffffffffffffffffffffffffff021916908373ffffffffffffffffffffffffffffffffffffffff160217905550808273ffffffffffffffffffffffffffffffffffffffff168473ffffffffffffffffffffffffffffffffffffffff167fddf252ad1be2c89b69c2b068fc378daa952ba7f163c4a11628f55a4df523b3ef60405160405180910390a4505050565b612025848484611dbe565b61203184848484612451565b612070576040517f08c379a000000000000000000000000000000000000000000000000000000000815260040161206790613aff565b60405180910390fd5b50505050565b6060600b8054612085906140f2565b80601f01602080910402602001604051908101604052809291908181526020018280546120b1906140f2565b80156120fe5780601f106120d3576101008083540402835291602001916120fe565b820191906000526020600020905b8154815290600101906020018083116120e157829003601f168201915b5050505050905090565b60606000821415612150576040518060400160405280600181526020017f300000000000000000000000000000000000000000000000000000000000000081525090506122b0565b600082905060005b6000821461218257808061216b90614124565b915050600a8261217b9190613f7d565b9150612158565b60008167ffffffffffffffff8111156121c4577f4e487b7100000000000000000000000000000000000000000000000000000000600052604160045260246000fd5b6040519080825280601f01601f1916602001820160405280156121f65781602001600182028036833780820191505090505b5090505b600085146122a95760018261220f9190614008565b9150600a8561221e9190614177565b603061222a9190613f27565b60f81b818381518110612266577f4e487b7100000000000000000000000000000000000000000000000000000000600052603260045260246000fd5b60200101907effffffffffffffffffffffffffffffffffffffffffffffffffffffffffffff1916908160001a905350600a856122a29190613f7d565b94506121fa565b8093505050505b919050565b6122cf8282604051806020016040528060008152506125e8565b5050565b60007f01ffc9a7000000000000000000000000000000000000000000000000000000007bffffffffffffffffffffffffffffffffffffffffffffffffffffffff1916827bffffffffffffffffffffffffffffffffffffffffffffffffffffffff1916149050919050565b612348838383612643565b600073ffffffffffffffffffffffffffffffffffffffff168373ffffffffffffffffffffffffffffffffffffffff16141561238b5761238681612648565b6123ca565b8173ffffffffffffffffffffffffffffffffffffffff168373ffffffffffffffffffffffffffffffffffffffff16146123c9576123c88382612691565b5b5b600073ffffffffffffffffffffffffffffffffffffffff168273ffffffffffffffffffffffffffffffffffffffff16141561240d57612408816127fe565b61244c565b8273ffffffffffffffffffffffffffffffffffffffff168273ffffffffffffffffffffffffffffffffffffffff161461244b5761244a8282612941565b5b5b505050565b60006124728473ffffffffffffffffffffffffffffffffffffffff166129c0565b156125db578373ffffffffffffffffffffffffffffffffffffffff1663150b7a0261249b611bb3565b8786866040518563ffffffff1660e01b81526004016124bd9493929190613a34565b602060405180830381600087803b1580156124d757600080fd5b505af192505050801561250857506040513d601f19601f820116820180604052508101906125059190612f76565b60015b61258b573d8060008114612538576040519150601f19603f3d011682016040523d82523d6000602084013e61253d565b606091505b50600081511415612583576040517f08c379a000000000000000000000000000000000000000000000000000000000815260040161257a90613aff565b60405180910390fd5b805181602001fd5b63150b7a0260e01b7bffffffffffffffffffffffffffffffffffffffffffffffffffffffff1916817bffffffffffffffffffffffffffffffffffffffffffffffffffffffff1916149150506125e0565b600190505b949350505050565b6125f283836129d3565b6125ff6000848484612451565b61263e576040517f08c379a000000000000000000000000000000000000000000000000000000000815260040161263590613aff565b60405180910390fd5b505050565b505050565b6008805490506009600083815260200190815260200160002081905550600881908060018154018082558091505060019003906000526020600020016000909190919091505550565b6000600161269e84610f05565b6126a89190614008565b905060006007600084815260200190815260200160002054905081811461278d576000600660008673ffffffffffffffffffffffffffffffffffffffff1673ffffffffffffffffffffffffffffffffffffffff168152602001908152602001600020600084815260200190815260200160002054905080600660008773ffffffffffffffffffffffffffffffffffffffff1673ffffffffffffffffffffffffffffffffffffffff168152602001908152602001600020600084815260200190815260200160002081905550816007600083815260200190815260200160002081905550505b6007600084815260200190815260200160002060009055600660008573ffffffffffffffffffffffffffffffffffffffff1673ffffffffffffffffffffffffffffffffffffffff16815260200190815260200160002060008381526020019081526020016000206000905550505050565b600060016008805490506128129190614008565b9050600060096000848152602001908152602001600020549050600060088381548110612868577f4e487b7100000000000000000000000000000000000000000000000000000000600052603260045260246000fd5b9060005260206000200154905080600883815481106128b0577f4e487b7100000000000000000000000000000000000000000000000000000000600052603260045260246000fd5b906000526020600020018190555081600960008381526020019081526020016000208190555060096000858152602001908152602001600020600090556008805480612925577f4e487b7100000000000000000000000000000000000000000000000000000000600052603160045260246000fd5b6001900381819060005260206000200160009055905550505050565b600061294c83610f05565b905081600660008573ffffffffffffffffffffffffffffffffffffffff1673ffffffffffffffffffffffffffffffffffffffff168152602001908152602001600020600083815260200190815260200160002081905550806007600084815260200190815260200160002081905550505050565b600080823b905060008111915050919050565b600073ffffffffffffffffffffffffffffffffffffffff168273ffffffffffffffffffffffffffffffffffffffff161415612a43576040517f08c379a0000000000000000000000000000000000000000000000000000000008152600401612a3a90613c9f565b60405180910390fd5b612a4c81611bbb565b15612a8c576040517f08c379a0000000000000000000000000000000000000000000000000000000008152600401612a8390613b3f565b60405180910390fd5b612a986000838361233d565b6001600360008473ffffffffffffffffffffffffffffffffffffffff1673ffffffffffffffffffffffffffffffffffffffff1681526020019081526020016000206000828254612ae89190613f27565b92505081905550816002600083815260200190815260200160002060006101000a81548173ffffffffffffffffffffffffffffffffffffffff021916908373ffffffffffffffffffffffffffffffffffffffff160217905550808273ffffffffffffffffffffffffffffffffffffffff16600073ffffffffffffffffffffffffffffffffffffffff167fddf252ad1be2c89b69c2b068fc378daa952ba7f163c4a11628f55a4df523b3ef60405160405180910390a45050565b828054612bad906140f2565b90600052602060002090601f016020900481019282612bcf5760008555612c16565b82601f10612be857805160ff1916838001178555612c16565b82800160010185558215612c16579182015b82811115612c15578251825591602001919060010190612bfa565b5b509050612c239190612c27565b5090565b5b80821115612c40576000816000905550600101612c28565b5090565b6000612c57612c5284613e4b565b613e1a565b905082815260208101848484011115612c6f57600080fd5b612c7a8482856140b0565b509392505050565b6000612c95612c9084613e7b565b613e1a565b905082815260208101848484011115612cad57600080fd5b612cb88482856140b0565b509392505050565b600081359050612ccf81614275565b92915050565b600081359050612ce48161428c565b92915050565b600081359050612cf9816142a3565b92915050565b600081519050612d0e816142a3565b92915050565b600082601f830112612d2557600080fd5b8135612d35848260208601612c44565b91505092915050565b600082601f830112612d4f57600080fd5b8135612d5f848260208601612c82565b91505092915050565b600081359050612d77816142ba565b92915050565b600060208284031215612d8f57600080fd5b6000612d9d84828501612cc0565b91505092915050565b60008060408385031215612db957600080fd5b6000612dc785828601612cc0565b9250506020612dd885828601612cc0565b9150509250929050565b600080600060608486031215612df757600080fd5b6000612e0586828701612cc0565b9350506020612e1686828701612cc0565b9250506040612e2786828701612d68565b9150509250925092565b60008060008060808587031215612e4757600080fd5b6000612e5587828801612cc0565b9450506020612e6687828801612cc0565b9350506040612e7787828801612d68565b925050606085013567ffffffffffffffff811115612e9457600080fd5b612ea087828801612d14565b91505092959194509250565b60008060408385031215612ebf57600080fd5b6000612ecd85828601612cc0565b9250506020612ede85828601612cd5565b9150509250929050565b60008060408385031215612efb57600080fd5b6000612f0985828601612cc0565b9250506020612f1a85828601612d68565b9150509250929050565b600060208284031215612f3657600080fd5b6000612f4484828501612cd5565b91505092915050565b600060208284031215612f5f57600080fd5b6000612f6d84828501612cea565b91505092915050565b600060208284031215612f8857600080fd5b6000612f9684828501612cff565b91505092915050565b600060208284031215612fb157600080fd5b600082013567ffffffffffffffff811115612fcb57600080fd5b612fd784828501612d3e565b91505092915050565b600060208284031215612ff257600080fd5b600061300084828501612d68565b91505092915050565b60006130158383613994565b60208301905092915050565b61302a8161403c565b82525050565b600061303b82613ebb565b6130458185613ee9565b935061305083613eab565b8060005b838110156130815781516130688882613009565b975061307383613edc565b925050600181019050613054565b5085935050505092915050565b6130978161404e565b82525050565b60006130a882613ec6565b6130b28185613efa565b93506130c28185602086016140bf565b6130cb81614264565b840191505092915050565b60006130e182613ed1565b6130eb8185613f0b565b93506130fb8185602086016140bf565b61310481614264565b840191505092915050565b600061311a82613ed1565b6131248185613f1c565b93506131348185602086016140bf565b80840191505092915050565b600061314d602b83613f0b565b91507f455243373231456e756d657261626c653a206f776e657220696e646578206f7560008301527f74206f6620626f756e64730000000000000000000000000000000000000000006020830152604082019050919050565b60006131b3603283613f0b565b91507f4552433732313a207472616e7366657220746f206e6f6e20455243373231526560008301527f63656976657220696d706c656d656e74657200000000000000000000000000006020830152604082019050919050565b6000613219602683613f0b565b91507f4f776e61626c653a206e6577206f776e657220697320746865207a65726f206160008301527f64647265737300000000000000000000000000000000000000000000000000006020830152604082019050919050565b600061327f601c83613f0b565b91507f4552433732313a20746f6b656e20616c7265616479206d696e746564000000006000830152602082019050919050565b60006132bf600783613f0b565b91507f4e6f7420796574000000000000000000000000000000000000000000000000006000830152602082019050919050565b60006132ff602483613f0b565b91507f4552433732313a207472616e7366657220746f20746865207a65726f2061646460008301527f72657373000000000000000000000000000000000000000000000000000000006020830152604082019050919050565b6000613365601983613f0b565b91507f4552433732313a20617070726f766520746f2063616c6c6572000000000000006000830152602082019050919050565b60006133a5600583613f0b565b91507f50617573650000000000000000000000000000000000000000000000000000006000830152602082019050919050565b60006133e5601483613f0b565b91507f475465737420616c7265616479206d696e7465640000000000000000000000006000830152602082019050919050565b6000613425600983613f0b565b91507f4d6178206c696d697400000000000000000000000000000000000000000000006000830152602082019050919050565b6000613465602c83613f0b565b91507f4552433732313a206f70657261746f7220717565727920666f72206e6f6e657860008301527f697374656e7420746f6b656e00000000000000000000000000000000000000006020830152604082019050919050565b60006134cb603883613f0b565b91507f4552433732313a20617070726f76652063616c6c6572206973206e6f74206f7760008301527f6e6572206e6f7220617070726f76656420666f7220616c6c00000000000000006020830152604082019050919050565b6000613531602a83613f0b565b91507f4552433732313a2062616c616e636520717565727920666f7220746865207a6560008301527f726f2061646472657373000000000000000000000000000000000000000000006020830152604082019050919050565b6000613597602983613f0b565b91507f4552433732313a206f776e657220717565727920666f72206e6f6e657869737460008301527f656e7420746f6b656e00000000000000000000000000000000000000000000006020830152604082019050919050565b60006135fd602083613f0b565b91507f4552433732313a206d696e7420746f20746865207a65726f20616464726573736000830152602082019050919050565b600061363d600883613f0b565b91507f53616c6520656e640000000000000000000000000000000000000000000000006000830152602082019050919050565b600061367d602c83613f0b565b91507f4552433732313a20617070726f76656420717565727920666f72206e6f6e657860008301527f697374656e7420746f6b656e00000000000000000000000000000000000000006020830152604082019050919050565b60006136e3602083613f0b565b91507f4f776e61626c653a2063616c6c6572206973206e6f7420746865206f776e65726000830152602082019050919050565b6000613723602983613f0b565b91507f4552433732313a207472616e73666572206f6620746f6b656e2074686174206960008301527f73206e6f74206f776e00000000000000000000000000000000000000000000006020830152604082019050919050565b6000613789602f83613f0b565b91507f4552433732314d657461646174613a2055524920717565727920666f72206e6f60008301527f6e6578697374656e7420746f6b656e00000000000000000000000000000000006020830152604082019050919050565b60006137ef601183613f0b565b91507f56616c75652062656c6f772070726963650000000000000000000000000000006000830152602082019050919050565b600061382f602183613f0b565b91507f4552433732313a20617070726f76616c20746f2063757272656e74206f776e6560008301527f72000000000000000000000000000000000000000000000000000000000000006020830152604082019050919050565b6000613895600a83613f0b565b91507f45786365656473203230000000000000000000000000000000000000000000006000830152602082019050919050565b60006138d5603183613f0b565b91507f4552433732313a207472616e736665722063616c6c6572206973206e6f74206f60008301527f776e6572206e6f7220617070726f7665640000000000000000000000000000006020830152604082019050919050565b600061393b602c83613f0b565b91507f455243373231456e756d657261626c653a20676c6f62616c20696e646578206f60008301527f7574206f6620626f756e647300000000000000000000000000000000000000006020830152604082019050919050565b61399d816140a6565b82525050565b6139ac816140a6565b82525050565b6139c36139be826140a6565b61416d565b82525050565b60006139d5828561310f565b91506139e1828461310f565b91508190509392505050565b60006139f982856139b2565b602082019150613a0982846139b2565b6020820191508190509392505050565b6000602082019050613a2e6000830184613021565b92915050565b6000608082019050613a496000830187613021565b613a566020830186613021565b613a6360408301856139a3565b8181036060830152613a75818461309d565b905095945050505050565b60006020820190508181036000830152613a9a8184613030565b905092915050565b6000602082019050613ab7600083018461308e565b92915050565b60006020820190508181036000830152613ad781846130d6565b905092915050565b60006020820190508181036000830152613af881613140565b9050919050565b60006020820190508181036000830152613b18816131a6565b9050919050565b60006020820190508181036000830152613b388161320c565b9050919050565b60006020820190508181036000830152613b5881613272565b9050919050565b60006020820190508181036000830152613b78816132b2565b9050919050565b60006020820190508181036000830152613b98816132f2565b9050919050565b60006020820190508181036000830152613bb881613358565b9050919050565b60006020820190508181036000830152613bd881613398565b9050919050565b60006020820190508181036000830152613bf8816133d8565b9050919050565b60006020820190508181036000830152613c1881613418565b9050919050565b60006020820190508181036000830152613c3881613458565b9050919050565b60006020820190508181036000830152613c58816134be565b9050919050565b60006020820190508181036000830152613c7881613524565b9050919050565b60006020820190508181036000830152613c988161358a565b9050919050565b60006020820190508181036000830152613cb8816135f0565b9050919050565b60006020820190508181036000830152613cd881613630565b9050919050565b60006020820190508181036000830152613cf881613670565b9050919050565b60006020820190508181036000830152613d18816136d6565b9050919050565b60006020820190508181036000830152613d3881613716565b9050919050565b60006020820190508181036000830152613d588161377c565b9050919050565b60006020820190508181036000830152613d78816137e2565b9050919050565b60006020820190508181036000830152613d9881613822565b9050919050565b60006020820190508181036000830152613db881613888565b9050919050565b60006020820190508181036000830152613dd8816138c8565b9050919050565b60006020820190508181036000830152613df88161392e565b9050919050565b6000602082019050613e1460008301846139a3565b92915050565b6000604051905081810181811067ffffffffffffffff82111715613e4157613e40614235565b5b8060405250919050565b600067ffffffffffffffff821115613e6657613e65614235565b5b601f19601f8301169050602081019050919050565b600067ffffffffffffffff821115613e9657613e95614235565b5b601f19601f8301169050602081019050919050565b6000819050602082019050919050565b600081519050919050565b600081519050919050565b600081519050919050565b6000602082019050919050565b600082825260208201905092915050565b600082825260208201905092915050565b600082825260208201905092915050565b600081905092915050565b6000613f32826140a6565b9150613f3d836140a6565b9250827fffffffffffffffffffffffffffffffffffffffffffffffffffffffffffffffff03821115613f7257613f716141a8565b5b828201905092915050565b6000613f88826140a6565b9150613f93836140a6565b925082613fa357613fa26141d7565b5b828204905092915050565b6000613fb9826140a6565b9150613fc4836140a6565b9250817fffffffffffffffffffffffffffffffffffffffffffffffffffffffffffffffff0483118215151615613ffd57613ffc6141a8565b5b828202905092915050565b6000614013826140a6565b915061401e836140a6565b925082821015614031576140306141a8565b5b828203905092915050565b600061404782614086565b9050919050565b60008115159050919050565b60007fffffffff0000000000000000000000000000000000000000000000000000000082169050919050565b600073ffffffffffffffffffffffffffffffffffffffff82169050919050565b6000819050919050565b82818337600083830152505050565b60005b838110156140dd5780820151818401526020810190506140c2565b838111156140ec576000848401525b50505050565b6000600282049050600182168061410a57607f821691505b6020821081141561411e5761411d614206565b5b50919050565b600061412f826140a6565b91507fffffffffffffffffffffffffffffffffffffffffffffffffffffffffffffffff821415614162576141616141a8565b5b600182019050919050565b6000819050919050565b6000614182826140a6565b915061418d836140a6565b92508261419d5761419c6141d7565b5b828206905092915050565b7f4e487b7100000000000000000000000000000000000000000000000000000000600052601160045260246000fd5b7f4e487b7100000000000000000000000000000000000000000000000000000000600052601260045260246000fd5b7f4e487b7100000000000000000000000000000000000000000000000000000000600052602260045260246000fd5b7f4e487b7100000000000000000000000000000000000000000000000000000000600052604160045260246000fd5b6000601f19601f8301169050919050565b61427e8161403c565b811461428957600080fd5b50565b6142958161404e565b81146142a057600080fd5b50565b6142ac8161405a565b81146142b757600080fd5b50565b6142c3816140a6565b81146142ce57600080fd5b5056fea264697066735822122023d51b420893f61ccf3bd6935ad0e365775622e0b63859ca4d017a7635cd5ead64736f6c63430008000033",
  "immutableReferences": {},
  "source": "// SPDX-License-Identifier: MIT\npragma solidity ^0.8.0;\n\nimport \"@openzeppelin/contracts/access/Ownable.sol\";\nimport \"@openzeppelin/contracts/token/ERC721/extensions/ERC721Enumerable.sol\";\n\ncontract TestOne is ERC721Enumerable, Ownable {\n    uint public constant MAX = 10000;\n\tstring _baseTokenURI;\n\tbool public paused = true;\n\n    uint256 GTest = 0;\n\n    // Truth.\n    constructor(string memory baseURI) ERC721(\"TestOne\", \"TESTONE\")  {\n        setBaseURI(baseURI);\n    }\n\n    modifier saleIsOpen{\n        require(totalSupply() < MAX, \"Sale end\");\n        _;\n    }\n\n    function mintTest(address _to, uint _count) public payable saleIsOpen {\n        if(msg.sender != owner()){\n            require(!paused, \"Pause\");\n        }\n        require(totalSupply() + _count <= MAX, \"Max limit\");\n        require(totalSupply() < MAX, \"Sale end\");\n        require(_count <= 20, \"Exceeds 20\");\n        require(msg.value >= price(_count), \"Value below price\");\n\n        for(uint i = 0; i < _count; i++){\n            _safeMint(_to, totalSupply());\n        }\n    }\n\n    function price(uint _count) public view returns (uint256) {\n        uint _id = totalSupply();\n        // free 1000\n        /*if(_id <= 1000 ){\n            return 0;\n        }*/\n        \n        return 10000000000000000 * _count; // 0.01 ETH\n    }\n\n    function selectGTest() public onlyOwner {\n\n        require(GTest == 0, \"GTest already minted\");\n\n        uint256 max = MAX - 1;\n        uint256 sell = totalSupply() - 1;\n        uint256 randomHash = uint256(keccak256(abi.encodePacked(block.timestamp, block.difficulty)));\n\n        randomHash = randomHash % max;\n\n        if (randomHash >= 5 && randomHash <= sell){\n            GTest =  randomHash;\n        }\n    }\n\n    function getGTest() public view returns (uint256){\n        if(msg.sender != owner()){\n            require (block.timestamp > 1626759600, \"Not yet\");\n        }\n        return GTest;\n    }\n\n    function _baseURI() internal view virtual override returns (string memory) {\n        return _baseTokenURI;\n    }\n    function setBaseURI(string memory baseURI) public onlyOwner {\n        _baseTokenURI = baseURI;\n    }\n\n    function walletOfOwner(address _owner) external view returns(uint256[] memory) {\n        uint tokenCount = balanceOf(_owner);\n\n        uint256[] memory tokensId = new uint256[](tokenCount);\n        for(uint i = 0; i < tokenCount; i++){\n            tokensId[i] = tokenOfOwnerByIndex(_owner, i);\n        }\n\n        return tokensId;\n    }\n\n    function pause(bool val) public onlyOwner {\n        paused = val;\n    }\n\n    function withdrawAll() public payable onlyOwner {\n        require(payable(_msgSender()).send(address(this).balance));\n    }\n    \n}",
  "sourcePath": "/home/keymon/Work/projet-pro/dApp/box-erc721/contracts/TestOne.sol",
  "compiler": {
    "name": "solc",
    "version": "0.8.0+commit.c7dfd78e.Emscripten.clang"
  },
  "schemaVersion": "3.4.1",
  "updatedAt": "2021-06-28T11:17:28.643Z",
  "networkType": "ethereum",
  "devdoc": {
    "kind": "dev",
    "methods": {
      "approve(address,uint256)": {
        "details": "See {IERC721-approve}."
      },
      "balanceOf(address)": {
        "details": "See {IERC721-balanceOf}."
      },
      "getApproved(uint256)": {
        "details": "See {IERC721-getApproved}."
      },
      "isApprovedForAll(address,address)": {
        "details": "See {IERC721-isApprovedForAll}."
      },
      "name()": {
        "details": "See {IERC721Metadata-name}."
      },
      "owner()": {
        "details": "Returns the address of the current owner."
      },
      "ownerOf(uint256)": {
        "details": "See {IERC721-ownerOf}."
      },
      "renounceOwnership()": {
        "details": "Leaves the contract without owner. It will not be possible to call `onlyOwner` functions anymore. Can only be called by the current owner. NOTE: Renouncing ownership will leave the contract without an owner, thereby removing any functionality that is only available to the owner."
      },
      "safeTransferFrom(address,address,uint256)": {
        "details": "See {IERC721-safeTransferFrom}."
      },
      "safeTransferFrom(address,address,uint256,bytes)": {
        "details": "See {IERC721-safeTransferFrom}."
      },
      "setApprovalForAll(address,bool)": {
        "details": "See {IERC721-setApprovalForAll}."
      },
      "supportsInterface(bytes4)": {
        "details": "See {IERC165-supportsInterface}."
      },
      "symbol()": {
        "details": "See {IERC721Metadata-symbol}."
      },
      "tokenByIndex(uint256)": {
        "details": "See {IERC721Enumerable-tokenByIndex}."
      },
      "tokenOfOwnerByIndex(address,uint256)": {
        "details": "See {IERC721Enumerable-tokenOfOwnerByIndex}."
      },
      "tokenURI(uint256)": {
        "details": "See {IERC721Metadata-tokenURI}."
      },
      "totalSupply()": {
        "details": "See {IERC721Enumerable-totalSupply}."
      },
      "transferFrom(address,address,uint256)": {
        "details": "See {IERC721-transferFrom}."
      },
      "transferOwnership(address)": {
        "details": "Transfers ownership of the contract to a new account (`newOwner`). Can only be called by the current owner."
      }
    },
    "version": 1
  },
  "userdoc": {
    "kind": "user",
    "methods": {},
    "version": 1
  }
}